:020000040800F2
:10000000D00C002081020008274300086B3700084D
:10001000234300089D2E0008E5560008000000005C
:10002000000000000000000000000000095000086F
:10003000C930000800000000F14E000869510008B6
:100040009B0200089B0200089B0200089B0200081C
:100050009B0200089B020008393400088534000820
:100060009B0200089B0200089B0200089B020008FC
:100070009B0200089B0200089B0200089B020008EC
:100080009B0200089B0200089B0200089B020008DC
:100090009B0200089B0200089B0200089B020008CC
:1000A0009B0200089B0200089B0200089B020008BC
:1000B000CD510008055300089B0200089B02000870
:1000C0009B0200089B0200089B0200089B0200089C
:1000D0009B020008B9540008D55400089B02000890
:1000E0009B0200089B0200089B0200089B0200087C
:1000F0009B0200089B0200089B0200089B0200086C
:100100009B0200089B0200089B0200089B0200085B
:100110009B0200089B0200089B0200089B0200084B
:100120009B0200089B0200089B0200089B0200083B
:1001300000F002F800F094F80AA090E8000C824465
:100140008344AAF10107DA4501D100F089F8AFF242
:10015000090EBAE80F0013F0010F18BFFB1A43F0A5
:1001600001031847648A0000848A0000103A24BF03
:1001700078C878C1FAD8520724BF30C830C144BF0C
:1001800004680C607047000000230024002500264E
:10019000103A28BF78C1FBD8520728BF30C148BFEA
:1001A0000B6070476E2900F08885702900F043824B
:1001B000662907F01880652907F01580672907F080
:1001C0001280612907F0118003681B0A28BF41F0E3
:1001D0008001692900F0B481642900F0B18175299A
:1001E00000F0AE816F2901F08480782900F00F8241
:1001F000E92901F01F80E42901F01C80F52901F0B4
:100200001980EF2901F08180F82900F00E8203683F
:10021000DB0928BF41F08001632900F0A087732922
:1002200000F0A587E32901F0D985F32901F0DE85E7
:10023000002070471FB59DE8030000F09DFC01F011
:1002400099FB04000020002106F018FC401C6060AF
:100250000020002106F028FCE0601FBD10B510BD95
:1002600001F0B2FE1146FFF7E5FF05F0AFFE02F028
:1002700013F903B4FFF7F2FF03BC02F043F90000E7
:100280000948804709480047FEE7FEE7FEE7FEE72A
:10029000FEE7FEE7FEE7FEE7FEE7FEE70448054966
:1002A000054A064B704700006D51000831010008F7
:1002B000D0060020D00C0020D0080020D00800205C
:1002C00070B5064600F038FC056806F10B0020F01A
:1002D0000704B4429CBF002070BD2B466A68BAB1C7
:1002E0001068A04210D304F1080188423CBF506856
:1002F000586007D35168101941601168091B0160EB
:1003000058601460101D70BD13465268002AE7D172
:100310002146284600F01CFC0028DED170BD70B5D7
:100320000446051F00F008FC0068002C14BF446858
:1003300070BD002C18BFAC423CBF20466468F8D3A7
:1003400001680A18AA4218BF456003D12A68054609
:100350001144016028684119A1421CBF6C6070BD46
:100360006168696021680844286070BD70B50D46F9
:100370000646041F00F0E0FBD0F800C0C5B1E6B1AE
:1003800005F10B0020F00703AB423CBF002070BD1D
:100390002068984238BFDCF8042013D3C11A08291A
:1003A0002FD3E01840F8041B2360FFF7B8FF28E0C4
:1003B0003046FFF7B4FF002070BD2846BDE870400E
:1003C000FFF77EBF002A18BFA2423CBF9446526886
:1003D000F8D30119914216D111680844984212D3FA
:1003E000C11A08293CBF2060506808D35168E01842
:1003F0004160216812681144C91A01602360CCF879
:100400000400201D70BD181FFFF75AFF050007D01C
:1004100021680A1F211D00F0C7FA201DFFF77FFF8A
:10042000284670BD10B5044600F07EFB0068005DF4
:10043000C00602D504F1200010BD204610BD00000A
:100440007CB51D4616460C00009001D02044401E8D
:10045000074B7B442A4669460190304600F055FE22
:1004600005461CB10020694600F062FE28467CBDAE
:10047000E50C00000FB41CB5084B06AA7B44694686
:100480000090059800F041FE04460020694600F007
:100490004FFE20461CBC5DF814FB0000B10C0000B0
:1004A00070B5044685690068C10601D5302600E0B4
:1004B0002026C00707D070BDD4E9012130469047FF
:1004C000206A401C20626D1EF6D570BD70B50446D2
:1004D00085690078C00707D170BDD4E901212020CB
:1004E0009047206A401C20626D1EF6D570BD70B525
:1004F0000C460546012A05D02878800600D5EA6911
:10050000002302E0012305E05B1C934202D2E05C81
:100510000028F9D1A869E618C01AA861286A184409
:1005200028622846FFF7BCFF04E0D5E9012114F852
:10053000010B9047B442F8D32846FFF7C7FF70BDC0
:100540002DE9F0410646002410687529314616A5AC
:1005500010D000F047FB002802DA404213A507E064
:1005600031688A0701D512A502E0490704D511A513
:10057000012401E000F03FFB00210A2206F12407DC
:1005800009E0B0FBF2FCB0FBF2F302FB1C003030E0
:1005900078541846491C0028F3D123462A46304691
:1005A000BDE8F04100F030BB000000002D0000006D
:1005B0002B00000020000000F0B40D460188090562
:1005C00002D5214C7C4402E01F4C7C440E340021B7
:1005D00000F1240608E002F00F071209E75D42EA85
:1005E00003721B097754491C52EA0307F3D10278BE
:1005F0000023120704D5702D06D009B1022311344F
:100600002246F0BC00F000BB01231034F8E770B5BF
:1006100004460D462146106800F0EDFA02462946D0
:100620002046BDE870400023C6E7D21D22F0070334
:10063000D3E90023C0E70368126843F02003036096
:100640000823C3610023B7E7F08400002DE9F05FC1
:10065000894604464FF0000ADFF874B1FB44C0F845
:1006600020A02046E1688847002874D0252806D0BD
:10067000D4E901219047206A401C2062F1E700265E
:100680005F462046E16888472028054607DB312D74
:1006900005D2781910F8200C08B10643F1E7B0072D
:1006A00001D526F00406C4F81CA00027C4F818A041
:1006B0002A2D09D0284605F096F938B304EB8708AF
:1006C000303DC8F8185019E059F8041B204604EBD7
:1006D00087029161E1688847012F054618D1E069DA
:1006E000002820DA26F020061DE0D8F8180000EBDC
:1006F000800005EB40003038C8F818002046E1685B
:100700008847054605F06FF90028EED1012F0AD081
:100710002E2D08D12046E16888477F1C0546022F10
:1007200046F02006C4DBA069002803DA404246F008
:100730000106A061F00701D026F010066C2D0BD049
:10074000682D09D04C2D39D06A2D35D0742D35D077
:100750007A2D33D016E038E0E1682F4620468847EE
:10076000B842054609D16C2F26D04FF48060E1686D
:10077000064320468847054604E06C2F1AD04FF404
:10078000807006430DB3A5F14100192802D8203529
:1007900046F400664A462946204626604E46FFF744
:1007A00001FD80B101280BD0F61D26F0070000F1F5
:1007B000080956E74020E4E78020D8E70020D6E784
:1007C00006F104094DE7284652E7206ABDE8F09F8C
:1007D0008084000070B5064600F0B2F90468054652
:1007E00030460A22002101F089F82C6070BD401EBD
:1007F000CAB210F8011F8A4202D00029F9D10020A4
:10080000704710B5431E13F8014F002CFBD105E0D3
:1008100011F8014B002C03F8014B03D0521EF7D204
:100820000021197010BD30B505460B462A4613F855
:10083000014B12F8010B08B1A042F8D01CB10028FE
:1008400002D06D1CF1E7284630BD10B5431C02E014
:1008500010F8011B71B18107FAD14FF0013202C8C3
:100860008C1A8C4314EAC211F9D0C01A0A0603D0BC
:10087000C01E10BDC01A10BD0A0401D0801E10BDDC
:100880000902FCD0401E10BD40EA010370B59B0771
:100890002ED14FF00136042A2AD308C810C99D1B57
:1008A0009D43121F15EAC61517D0D8B2E1B2401AFF
:1008B00050EA056110D198B2A1B2401A50EA054140
:1008C0000AD123F07F4024F07F41401A50EA0521ED
:1008D00002D1180EA0EB146070BDA342DBD018BA91
:1008E00021BA884201D9012070BD4FF0FF3070BDA0
:1008F0000AB9002070BD10F8013B11F8014B63B13B
:10090000A3420AD1521E08D010F8013B11F8014B46
:100910001BB1A34201D1521EEDD1181B70BD032A99
:1009200040F2308010F0030C00F0158011F8013B0C
:10093000BCF1020F624498BF11F801CB00F8013BF3
:1009400038BF11F8013BA2F1040298BF00F801CBB7
:1009500038BF00F8013B11F0030300F02580083A8E
:10096000C0F0088051F8043B083A51F804CBA0E8E5
:100970000810F5E7121D5CBF51F8043B40F8043B3A
:10098000AFF30080D20724BF11F8013B11F801CB6F
:1009900048BF11F8012B24BF00F8013B00F801CB40
:1009A00048BF00F8012B704710B5203AC0F00B800B
:1009B000B1E81850203AA0E81850B1E81850A0E863
:1009C0001850BFF4F5AF5FEA027C24BFB1E81850BD
:1009D000A0E8185044BF18C918C0BDE810405FEA2D
:1009E000827C24BF51F8043B40F8043B08BF7047A9
:1009F000D20728BF31F8023B48BF11F8012B28BFAE
:100A000020F8023B48BF00F8012B70474FF000026E
:100A10000429C0F0128010F0030C00F01B80CCF110
:100A2000040CBCF1020F18BF00F8012BA8BF20F87E
:100A3000022BA1EB0C0100F00DB85FEAC17C24BFD2
:100A400000F8012B00F8012B48BF00F8012B70477C
:100A50004FF0000200B5134694469646203922BF57
:100A6000A0E80C50A0E80C50B1F12001BFF4F7AFA2
:100A7000090728BFA0E80C5048BF0CC05DF804EB84
:100A8000890028BF40F8042B08BF704748BF20F8F2
:100A9000022B11F0804F18BF00F8012B70470000A7
:100AA0004FF0013C50F8042B51F8043B9A4221D1FD
:100AB000A2EB0C03934313EACC1317D150F8042B89
:100AC00051F8043B9A4215D1A2EB0C03934313EA6D
:100AD000CC130BD150F8042B51F8043B9A4209D1A6
:100AE000A2EB0C03934313EACC13DBD04FF00000CE
:100AF000704700BFD01A01BAB1FA81F101F01801B4
:100B000022FA01F0CB40C1F12001DBB2C0B2C01A21
:100B10002CFA01F3D11A914311EAC311E6D17047BF
:100B2000704770477047000010B500F023FF001DAC
:100B300010BD00BF495F00000048704774060020E8
:100B4000004870476C060020704770477047704738
:100B500038B504460A4600206946AFF300800028F5
:100B600008BF38BD02460099204600F007FF01206B
:100B700038BD012001F020BAF8B5AFF3008005467A
:100B800000200C46102000BF0646A819A0420DD92F
:100B9000324669460020AFF30080070008BF01F02D
:100BA0000BFA0098A04218BF0546C419FFF7C4FF0E
:100BB00005600746F01D20F007004619284600F0A2
:100BC0000AF8B44208BFF8BDA21B31463868BDE838
:100BD000F84000F0D3BE00210160C0E90110704769
:100BE0001020704709684A0501D540B27047C90511
:100BF000FCD500B2704709684A0501D5C0B27047FC
:100C0000C905FCD580B270472DE9F0470D469946DD
:100C10009246044600F124080168880604D5E0697C
:100C200021F01001216000E00120A84201DD471BF6
:100C300000E00027A1697A1902EB0900081AA061F7
:100C40002078C00602D42046FFF72AFC002608E0E0
:100C5000D4E901211AF806009047206A401C761C4E
:100C600020624E45F4DB2078C0060AD52046FFF707
:100C700017FC06E0D4E9012130209047206A401C8F
:100C80002062381EA7F10107F4DC07E0D4E9012156
:100C900018F805009047206A401C2062281EA5F124
:100CA0000105F3DC2046FFF711FC2078000602D591
:100CB0000220BDE8F0870120FBE711680268006AA6
:100CC000530501D508700AE0D30501D5088006E078
:100CD000130603D5C217C1E9000200E00860012035
:100CE000704770472DE9FF4F0C461E464FF0FF3707
:100CF0008BB0D2E90001DDF860800A908A46C1F32A
:100D00000A5505B93D46002108464FF00000BAF1EA
:100D1000000F00F4400005DA00EB80004FF44001C2
:100D200001EA50004FEA9059B9F1010F00DDB946D0
:100D30000A9850EA4A000ED044F61050A5F2FF354A
:100D400045432F14B8F1000F1ED07542291E1EDD39
:100D5000C9F100021CE0B8F1010F4FF0000001D012
:100D6000302103E0F24305E02154401CB042FBDB9C
:100D700030460022002121540B99C1F80880C1E9B6
:100D800000200FB0BDE8F08FBD1B6D1CDEE74A46AA
:100D900000DA694206A801F07DF806AB93E8070087
:100DA00003AB83E8070050460A9901F0E4FB8DE8A5
:100DB0000700A0F500501F3800900398002D0ADDB1
:100DC00042F21F014A460844002303A903906846E3
:100DD00001F090FE09E0A0F500504A461F380023BC
:100DE00003A90390684601F0AFFE8DE807000004F8
:100DF000000C03D04FF0FF30410800E01046B8F17E
:100E0000000F03D00022009215461EE0751E05D487
:100E100000F0CEFD303262556D1EF9D5B346012289
:100E2000084302D000227F1C04E02078302801D142
:100E300000227F1E002A099784D01DE0112D07DAB9
:100E400000F0B6FD303262556D1C50EA0102F5D15A
:100E5000084302D00098C8B10EE00021681E05E0EA
:100E6000235C625C63542254401E491C8142F7DBC0
:100E7000AB46A81B401E0990002004F80B000B98FD
:100E8000099AC0F80880C0E9002B7AE711264FF0D4
:100E9000000857E72DE9F04F88460446D21D22F09E
:100EA000070191B0D1E90001CDE90A0104F007FD85
:100EB00002460B98C00F01D02D2007E02068810763
:100EC00001D52B2002E0202101EAC000032A09906D
:100ED00001D0072A05DB03464146204600F034FFD7
:100EE0000BE12078800601D5E06900E00620B8F12A
:100EF000650F814606D0B8F1660F18D0B8F1670FBC
:100F000070D131E00020B9F1110F009001DB112305
:100F100001E009F101030AAA01A90CA8FFF7E2FE0A
:100F2000DDE90C70002609F10105834647E0012048
:100F30004B4600904FF000470AAA01A90CA8FFF702
:100F4000D1FEDDE90DB00C995D46002610B909F11E
:100F500001000D18B9EB050003D4C0F1FF3609F10B
:100F60000105A5EB09002BE0B9F1010F01DA4FF003
:100F700001090020B9F1110F0090484601DD11234D
:100F800000E003460AAA01A90CA8FFF7ABFEDDE9C1
:100F90000C704D4600268346207800070AD4AB45E6
:100FA00000DA5D4601A8012D04DD411911F8011C8C
:100FB000302907D04F4502DA17F1040F04DA012077
:100FC00082460FE06D1EEEE7002F02DCED1B3E4473
:100FD00003E0781CA84200DD7D1CB81B00F1010A6B
:100FE0004FF000472078000703D4AA4501DB4FF0FB
:100FF000FF3A0021B7F1004F0DF143088DF843107F
:1010000024D002202B23002F01DA7F422D230A2136
:10101000021EA0F1010000DC5FB197FBF1FC97FB21
:10102000F1F201FB1C7C17460CF1300C08F801CDE5
:10103000EEE7A8F1010003702188090501D54521DB
:1010400000E06521A0F1010800F8011C09980FA932
:10105000A1EB0807FF1D00B10120411901EBEA7067
:10106000A1693844081A401EA0612078C00602D445
:101070002046FFF715FA099828B1D4E901219047D5
:10108000206A401C20622078C00622D52046FFF747
:1010900007FA1EE0002E04DBB34502DD01A8805DE7
:1010A00000E03020D4E901219047206A401C2062F2
:1010B000761CAAF101005FEA000A0AD100F05AFC8E
:1010C000C0680168405CD4E901219047206A401C57
:1010D0002062281EA5F10105DCDC07E0D4E901212E
:1010E00018F8010B9047206A401C2062381EA7F1B7
:1010F0000107F3DC2046FFF7E9F9032011B041E6D0
:1011000001694A1C02610878704700B58FB0CDE9CB
:1011100001310021059105497944CDE903101146BB
:101120006846FFF793FA0FB000BD0000E5FFFFFF30
:101130000A6802F8010B0A607047D1E900239A425D
:1011400002D2531C0B601070704710B5436913B185
:10115000AFF3008001E0FFF7CAF9012010BD12785B
:1011600000F124010A7000224A700122EDE71168A3
:101170004FF0FF32E9E700002DE9FF5F15468A4690
:101180000446DFF8AC80F8440027D8E900103E465A
:10119000CDE9001010E03AF816106A4602A800F0F7
:1011A000EBFE411C07D02178890603D5E269391886
:1011B00091420DD80744761C2078800602D5E0695C
:1011C000B84205DDAE42E6DB3AF816000028E2D16F
:1011D000A069C01BA0612046FFF762F9D8E90010A2
:1011E000CDE90010002017E03AF818106A4602A86E
:1011F00000F0C2FEB0F1FF3F81460BD000250DF19B
:10120000080B05E0D4E901211BF8050090476D1C8F
:101210004D45F7D308F10100B0428046E4DB206A77
:10122000384420622046FFF751F9BDE8FF9F0000D7
:101230006A7900002DE9F0418046D21D22F00702B4
:101240000025D2E90002F52915A614D0011E72F17D
:10125000000106DA0023D0EB030063EB020211A6C3
:1012600008E0D8F800108B0701D50FA602E0490767
:1012700001D50EA601251146002408F1240704E03B
:1012800000F096FB30323A55641C50EA0102F7D167
:101290002B46324621464046BDE8F041FFF7B4BC3C
:1012A000000000002D0000002B00000020000000C6
:1012B00030B4002100F1240408E002F00705D20850
:1012C000303542EA4372DB086554491C52EA030593
:1012D000F3D10468002310A2250707D5A40600D483
:1012E00021B1C46901230DA2641EC46130BCFFF7A3
:1012F0008BBC10B5044621461068FFF77CFC024603
:101300002046BDE810400023D2E7D21D22F007019D
:10131000D1E90023CCE7000000000000300000000D
:101320002DE9FF4F06468BB00878FF2806D0491CF0
:101330002D2805D000244FF0000908E000200CE023
:101340000124F8E709EB8903491C00EB43090878FD
:10135000FF28F7D114B1C9F10000814610780025AB
:101360002C46AA4629462D2801D02B2804D1521CF0
:101370002D2813D0002082468B461078FF280FD0EE
:101380004FF0000C0A21521CA5FB017804FB0181DF
:1013900005FB0C11C5194BEB0104EEE70120EAE750
:1013A000002108464FF00000BAF1000F02D000EB18
:1013B00080004008C0F38157012F01DD4FF0FF3757
:1013C0000E9955EA040009EB01080BD04FF0020911
:1013D00018F5FA7F16DA4FEACA70002F706008DD40
:1013E000012007E04FEACA70C6E900B00FB0BDE8BF
:1013F000F08F00203060FFF7A3FBC0F800901821A9
:10140000084616E0B8F5FA7F18DD002F02DAF74833
:10141000784401E0F6487844D0E90010C6E90010AD
:1014200040EACA707060FFF78BFBC0F8009014218F
:1014300008460FB0BDE8F04F05F0D2BE00210846C7
:101440004FF00000B8F10001099002DAC7F1000284
:1014500000E03A4601DAC8F1000106A800F01AFDE2
:1014600006AB93E8070003AB83E8070044F23E00B5
:101470005BEA04010090584604D144F21E012C4658
:101480005D460091210C0904014306D10099240412
:1014900044EA15442D041039009104F07F410143C2
:1014A00006D10099240244EA15642D0208390091FE
:1014B00004F07041014306D10099240144EA1574F7
:1014C0002D01091F009104F04041014306D100990C
:1014D000A40044EA9574AD00891E009104F0004117
:1014E000084304D100986D196441401E00904FF0EC
:1014F00001033A466846B8F1000FCDE9014503A95A
:1015000002DD01F036FB01E001F009FBBAF1000F4A
:1015100004460D4601D084F00044002108464FF0F7
:101520000000099940F2FF77484010F00C0F07D1F6
:1015300024F00040284303D0C4F30A50B84212D12B
:10154000FFF7FEFAC0F80090C4F30A50B8420AD17F
:10155000A8487844D0E90010C6E9001004F0004122
:101560000843706042E7C6E900543FE72DE9FF4FAA
:101570001F464FF0000A4FF0FF38454691B0D7E9BB
:101580000146CDF83CA000F0F5F9C0680168405C68
:101590001090B96912986D1C8847396A814688474E
:1015A0000028F6D1B9F1FF3F0AD0002E24F4D06410
:1015B00011DDB9F12B0F08D0B9F12D0F0BD102E0DD
:1015C000404615B013E744F48064B96912986D1C65
:1015D0008847761E8146600504A901D52D2000E0CC
:1015E0002B20002E01F1010B0DF130088DF81000B9
:1015F0003FDDB9F1690F08D0B9F1490F05D0B9F154
:101600006E0F02D0B9F14E0F1CD13B4601A80095D8
:1016100080E85002DDE912126FF0020005F04BFE87
:10162000C11CCED10EE0B96912986D1C8847814665
:101630001398761E44F4007405600F98401C002E29
:101640000F9016DDB9F1300FEDD0B9F1780F02D05F
:10165000B9F1580F0DD10F9801280AD13B46CDE9B9
:101660000054DDE91212001F029605F022FEC11C93
:10167000A7D1109989453ED144F0800406E0139922
:10168000681CAAF1010A44F400740860B9696D1C71
:101690001298761E884730288146F0D02BE01099AA
:1016A000894505D1200603D4761E44F0800418E055
:1016B000484604F098F908B3761E0DF123018B45D6
:1016C00044F4007408D2A9F130000BF8010B200695
:1016D00007D5AAF1010003E0200602D40AF10100B7
:1016E0008246A00502D51399681C0860B969129852
:1016F0006D1C88478146002ED1DC53E0002E51DD61
:10170000B9F1650F02D0B9F1450F4BD1A00549D50C
:10171000B9696D1C1298761E24F440748847002E17
:1017200081460CDD2B2804D0B9F12D0F07D144F4EC
:101730008074B96912986D1C8847761E8146E00551
:1017400001D52D2100E02B2108F8011BCDF80080E8
:1017500021E0761E0DF13901884544F400740CD265
:10176000A9F1300010F0FF0088F8000002D10099C4
:10177000884509D908F1010806E0E00501D51E48B1
:1017800001E042F20F708246B96912986D1C8847D9
:10179000814613980560002E04DD484604F023F9C5
:1017A0000028D6D1F96912988847FF2053468BF854
:1017B000000088F8000000200A900B9004AA0CA9F1
:1017C0000AA8FFF7ADFDA00502D46FF00100F8E60E
:1017D00014F0240F12D0E0071CD13868DDE90A129A
:1017E000031D3B600068C0E9001213E0DC770000D5
:1017F000CE77000092760000F1D8FFFF0AA9684674
:1018000004F080F8E00705D13868009A011D3960BE
:10181000006802602846D4E6426842B1016811F8C7
:10182000013B23B1521EC0E9001218467047012146
:10183000C160881E704742685AB1C368016843B9E5
:1018400083688B4205D0491E521CC0E9001200205B
:1018500070474FF0FF3070470FB4002300B589B0D8
:101860000CA900910B99CB60214B7B440693214B33
:101870007B44079304236FF00042CDE901321E4AF6
:101880007A446B4608920246002005F010FD09B02C
:101890005DF814FB70B506464FF0FF3015460C4658
:1018A000324686B00091CDE90101694600200490DE
:1018B00004A8FFF7D1FF02460498211825B108B10A
:1018C000084600E020462860049800280DD0002A31
:1018D00002DD0098884208D03246081B6946009411
:1018E000CDE9010404A8FFF7B7FF06B070BD000002
:1018F000ABFFFFFFC3FFFFFFB70100002DE9F0477B
:1019000091460F4680460446002614F8015B2DB12F
:10191000FFF70AF90068405DC007F6D12B2D02D011
:101920002D2D18D0641E4A463946204600F062FA32
:1019300027B13968A14201D1C7F800804FF00204F5
:1019400071050BD54042002803DDFFF7F9F804606C
:10195000A007BDE8F08746F48066E4E70028F8DADF
:10196000FFF7EEF804606FF00040F2E700487047C0
:101970006C060020004870478C0600200346406833
:101980008C46002818BF88423CBF03464068F8D305
:1019900018681844884207D00CF1030020F00700B3
:1019A000001D411A521A0146081D0A60FEF7B7BC15
:1019B00030B5B0F10A024FEA900E71F100034EEA21
:1019C000817EB0EB0E0061EB91014FEA101E4EEAF2
:1019D000017E10EB0E0041EB11114FEA102E4EEA82
:1019E000016E10EB0E0041EB11214FEA104E4EEA52
:1019F000014E10EB0E0041EB1141401841F1000186
:101A00004FEAD00040EA41704FEAD10110EB800567
:101A10004FEA810444EA907444EB01046D1944EBED
:101A20000404521BA3414FF0000348BF0A3200D503
:101A300030BD401C41F1000130BD10B50446FFF738
:101A400073F80068005D00F0010010BD2DE9F04F53
:101A500004460D46D21D22F0070089B0D0E9009758
:101A60004846394603F02BFF0246F80F01D02D23DC
:101A700007E02068810701D52B2302E0202101EA3D
:101A8000C0038DF820300BB1012000E00020032AB4
:101A9000824601D0072A04DB2946204600F054F98B
:101AA0003FE12078800601D40D2500E0E569C7F309
:101AB0000A560D2D49DA00214FEA175B08464FF010
:101AC0000000002F00F4400007DA00EB80004FF424
:101AD000400100EBD07001EA60008115012901DDB1
:101AE0004FF0FF3100224FEA850CBCF1180F06D3EE
:101AF0001346ACF118004FF08052C24003E04FF49F
:101B0000801323FA0CF30CF10C0CBCF1200F04D35E
:101B1000ACF1200C09FA0CF001E007FA0CF00029F6
:101B20004FF0004801DD18B90FE00ED140450CD34D
:101B300019EB02095F4121B9404502D19F4329EACF
:101B40000209BBEB175F00D0761C2088000502D588
:101B50007B48784402E07A487844193808AA302350
:101B600002F80A30037C0AF10101002E0AF1020A90
:101B700053546A4602DC4FF0300101E04FF031016E
:101B80004FF001088DF8001002D0A6F2FF3603E0F6
:101B900059EA470100D06B4E002D02DC217809077D
:101BA00004D54FF002082E218DF80110C446002103
:101BB0000BE0C7F303433F01C35C491C6D1E02F8F1
:101BC0000830052908F1010801DA002DF1DC0021B7
:101BD0000CE000EB1973491C1B786D1E082902F8F4
:101BE00008304FEA091908F1010801DA002DF0DC8C
:101BF00021688B0602D516E0A8F10108E04505DD55
:101C000002EB080313F8013C302BF5D0B8F1000FBC
:101C100009DD02EB080313F8013C2E2B03D1090761
:101C200001D4A8F10108002D05DD3E2102F80810BD
:101C30006D1E08F10108407C002E02F8080008F132
:101C4000010804DA2D20764202F8080002E02B2079
:101C500002F808000A214FF47A70864208F1010860
:101C60000BDB96FBF0F3303302F8083096FBF0F311
:101C700008F1010800FB136601E0642E0CDB642010
:101C800096FBF0F3303302F8083096FBF0F308F1DE
:101C9000010800FB136601E00A2E06DB96FBF1F05B
:101CA000303002F8080008F1010896FBF1F001FB62
:101CB0001060303002F80800A16908F1010808EB53
:101CC000050202EB0A00081AA0612078C00602D4BF
:101CD0002046FEF7E5FB216A08AE01EB0A00206210
:101CE00004E0D4E9012116F8010B9047BAF1010A8A
:101CF000F7D22078C00602D52046FEF7D1FB6E460B
:101D000009E016F8010B3E280FD0D4E901219047D5
:101D1000206A401C2062B8F10108F2D22046FEF78A
:101D2000D5FB09B00320BDE8F08F206A284420626B
:101D300003E0D4E90121302090476D1EEBD3F8E792
:101D4000B96F000002FCFFFF2DE9F0411F46044679
:101D500003260168072A01F4006004DB08B116A518
:101D600005E016A503E008B115A500E015A521F0D2
:101D700010002060A069C01EA0610FB1401EA061CC
:101D80002046FEF78DFB4FB1D4E90121384690473C
:101D9000206A401C2062C01C206206E0206AFAE72C
:101DA000D4E9012115F8010B9047761EF8D22046A0
:101DB000FEF78CFBBDE8F0814E414E006E616E0077
:101DC000494E4600696E660010B5436913B1AFF322
:101DD000008001E0FFF7D0F9012010BD128800F16A
:101DE000240182840022C2840122EDE711684FF0B1
:101DF000FF32E9E72DE9F05F824615468B46002762
:101E00000AF10104B9460078302801D09DB113E0F1
:101E100014F8010B0127782803D0582801D045B1C8
:101E20000AE00DB1102D07D1002714F8010B102581
:101E300002E0082500E00A250026B0460EE005FB7A
:101E4000080005FB06F101271FFA80F801EB104698
:101E5000B6F5803F00D3B94614F8010B294600F0CF
:101E6000E3F80028EBDABBF1000F05D00FB1641ED8
:101E700000E05446CBF80040B9F1000F06D0FEF761
:101E80005FFE02210160C81EBDE8F09F48EA0640DF
:101E9000FAE700002DE9F047814616468AB035483A
:101EA00078440DC88DE80D0032487844801C03AC9E
:101EB0000DC884E80D0041F69B300844372190FBA3
:101EC000F1F290FBF1F5A5F1800501FB12041B3C3A
:101ED00002D56442012000E00020DFF898A080468F
:101EE0000027FA44AAF1BE0A0EE0E0070AD0324603
:101EF000684607EB470101230AEB810100F024FE4D
:101F00008DE8070064107F1C002CEED1194F7F4430
:101F1000AE3F19E0E80715D007EB04100DF1180AE1
:101F200090E80E008AE80E00C068F04201D19819CE
:101F300008903246012306A903A800F005FE03AB72
:101F400083E807006D10641C002DE3D14FF00103FE
:101F500032466946B8F1000F03A802D000F0CAFD6E
:101F600001E000F0F1FDC9E90001C9F808200AB05C
:101F7000BDE8F087FC6C000070B516460C460546BF
:101F8000FEF7D2FD036893F80101012806D0FF2C6B
:101F90000FD8185D68B101202C7070BDD3F807010F
:101FA0003246214603F2071303442846BDE8704039
:101FB00018474FF0FF3070BD10B500F07BFABDE858
:101FC000104000F072BA70477546FFF7CFFCAE467E
:101FD00005006946534620F00700854618B020B535
:101FE000FEF75CF9BDE820404FF000064FF0000717
:101FF0004FF000084FF0000B21F00701AC46ACE8B1
:10200000C009ACE8C009ACE8C009ACE8C0098D461D
:10201000704710B5FEF794FD006810BD10B504467A
:10202000FEF78EFD046010BD3A2800D2303820F053
:102030002002412A01D3A2F13700884201D34FF098
:10204000FF3070472DE9FF4F1F464FF03C0987B026
:102050004FF00042DDE9141001F10108DDF858A04D
:1020600002EA40500390002005908346054604464E
:102070000490B969461E08988847AAF1010A02909F
:10208000BAF1000F3BDD02982E2815D01021FFF782
:10209000CBFF00282EDB4FF0010B0599014317D031
:1020A000B9F1000F0BDB4A46C11700F031FA0543C6
:1020B0000C43A9F1040905E0012004900BE008B1EC
:1020C00045F0010501200590049820B9361D02E075
:1020D000049800B1361FB969089808F101088847CB
:1020E000BBF1000FAAF1010A0290C9D00999C1F809
:1020F0000080C5E70298702808D0502806D0F969FA
:1021000008988847BBF1000F14D04FE000200290E0
:102110000120BBF1000F049009D0B969089808F1BB
:1021200001088847AAF10109B9F1000F07DCF96934
:10213000089888476FF001000BB0BDE8F08F2B289E
:1021400004D02D280CD14FF0FF300490B9690898C5
:1021500008F101088847A9F10109B9F1000FE6DD8E
:10216000411CE4D00A21FFF75FFF0028DFDB029962
:1021700008F1010801EB810100EB41000290B9690F
:10218000089888470A21FFF74FFF099AA9F101092A
:10219000B9F1000FC2F8008001DD0028E7DAF96923
:1021A000089888470499029800FB016655EA0400E4
:1021B00004D004F04041090002D006E0039898E002
:1021C000A40044EA9574AD00B61E04F00041080076
:1021D00002D16D196441761E159810F0240F03D0BA
:1021E0004FF00B095C4803E04FF028096FF07D00C9
:1021F0008246564507DAAAEB06018944B9F1410F38
:1022000001DD4FF0410901200021A9F1010200F098
:102210007FF9024628400B462140084301D00121A6
:1022200000E00021501E029143F1FF31284021407F
:10223000084301D0012000E000200299834651EAC2
:102240000B014FD0002108464FF00000039900F425
:10225000400039B100EB80004FF4400100EBD0703A
:1022600001EA60008015012802DD4FF0FF3000E038
:1022700013D0401C36D0029860B3BBF1000F0CD1D4
:102280004A460120002100F043F92840214008433C
:1022900001D0012000E00020E0B101204A460021E9
:1022A00000F036F9034640190A4661412D1A8C4167
:1022B00011D3B9F1400F09DD159810F0240F02D0A9
:1022C000AAF1340603E0AAF1170600E0761C002507
:1022D0004FF0004406E05B1E42F1FF3220EA0305A6
:1022E00021EA0204CAF10100B04206DA1B49039850
:1022F00008430190002000900EE0039AC4F3D3211C
:10230000E80A0A43164940EA44500A433146CDE9F7
:102310000002684603F05CFB159810F0240F0BD008
:102320001598C00715D13868DDE90012031D3B6020
:102330000068C0E900120CE002A8694603F0E2FA66
:102340001598C00705D13868029A011D39600068E8
:1023500002604046F0E6000002FCFFFF0000F07F54
:102360000000F03F2DE9FF4F92461D4685B04FF02B
:102370000041DDE9124BDDE914727F1E01EA4B508A
:10238000414940F0FF4940EA0108002122F02000C5
:102390004928049102D04E2828D04CE03BA00126C9
:1023A00007C88DE80700A9690698641C88477F1E46
:1023B000014606D41DF8060018B121F02001814223
:1023C0000BD0E96906988847032E34D0082E32D006
:1023D0006FF0010009B0BDE8F08F761C032E01D02C
:1023E000082EE0D1601CCAF80000DCE7A969069855
:1023F000641C88477F1E2AD420F02000412826D163
:10240000A9690698641C88477F1E20D420F020000C
:102410004E281CD1A9690698641C88477F1E48F481
:10242000002849F48009CAF8004001D4282806D0C1
:10243000E969069888475FEACB7012D022E0A96963
:102440000698641C88477F1E01D4002803DAE969D6
:1024500006988847BCE72928F1D1641CCAF80040D7
:10246000E9E71BF0240F07D028680499031D2B60AF
:102470000068C0E9001805E02868021D2A600068AD
:10248000C0F800902046A5E70000F07F494E46497D
:102490004E4954590000000010B50446AFF30080C7
:1024A0002046BDE81040FDF7E4BE002801D000F052
:1024B00029B8704710B5012805D0002103A000F00D
:1024C0003AF8012010BD09A1F8E70000534947522E
:1024D000544D454D3A204F7574206F6620686561F4
:1024E00070206D656D6F7279000000003A204865BC
:1024F0006170206D656D6F727920636F7272757097
:102500007465640001491820ABBEFEE72600020096
:10251000B2F120030AD5C2F1200301FA02F120FA38
:1025200003F300FA02F041EA0301704700FA03F1F5
:102530004FF00000704770B505460C460A2000E0D9
:102540006D1C00F011F835B128780028F8D102E0B0
:10255000641C00F009F814B120780028F8D1BDE817
:1025600070400A20AFF3008008B569468DF800007E
:102570000320ABBE08BD5FEA400C08BF91F0000F1E
:102580004FEA8C234FEAC12243EA51514FEA1C50D3
:1025900018BF00F5F0404FEA300018BF41F000418D
:1025A0005FEA6C5C00F02980BCF1FF3F08BF40F09F
:1025B00080407047130C06BF12044FF0100C4FF010
:1025C000000C130E04BF12020CF1080C130F04BF11
:1025D00012010CF1040C930F04BF92000CF1020CD9
:1025E000D30F04BF52000CF1010C11464FF0000252
:1025F000A0F11F00A0EB0C00704711F0004F08BFC6
:10260000704731F000413FF4D5AF0B0C06BF090411
:102610004FF0100C4FF0000C0B0E04BF09020CF130
:10262000080C0B0F04BF09010CF1040C8B0F04BF45
:1026300089000CF1020CCB0F04BF49000CF1010C16
:10264000CCF12003A0EB0C0022FA03F302FA0CF207
:1026500041EA030100F10100704720F07F4C80EA5D
:10266000030023F07F47ACEB070303F57C5300F036
:10267000004003F1FF032DE980494FEA154B09B4EF
:102680004FEA144325EA0B4E24EA03480FF20426CE
:1026900006EB132749083E785FEA320203FB066720
:1026A000C7F5000707FB06F64FEA54374FEAD64650
:1026B00006F1020607FB066CCCF1005C4FEA1C47F2
:1026C0002CEA074C07FB06F40CFB06F504EB154659
:1026D0004FEA961634BF00204FF000404FEAD13742
:1026E00006FB07FC4FEA1C4C0CFB0BF7D21B03FB51
:1026F0000CF761EB07010CFB0EF7B0EB074072EB38
:1027000017420CFB08F734BFA2EB0742B2EB0742BB
:1027100061EB17414FEA0C444FEA910706FB07FCB7
:102720004FEA1C4C0CFB0BF7B0EBC74072EB573277
:1027300003FB0CF734BFA2EBC742B2EBC74261EB1D
:1027400057310CFB0EF7B0EBC70072EB57720CFB66
:1027500008F734BFA2EBC702B2EBC70261EB5771B7
:10276000039F4FEA816141EA921104EBCC044FEAE6
:10277000D1374FEA826206FB07FC42EA90124FEA29
:1027800080604FEA1C4C0CFB0BF7D21B03FB0CF7D1
:1027900061EB07010CFB0EF7B0EB074072EB174241
:1027A0000CFB08F734BFA2EB0742B2EB074261EB28
:1027B00017414FEA8C554FEA910704EB9C2406FB26
:1027C00007FC4FEA1C4C0CFB0BF7B0EBC74072EB5D
:1027D000573203FB0CF734BFA2EBC742B2EBC74240
:1027E00061EB57310CFB0EF7B0EBC70072EB577281
:1027F0000CFB08F734BFA2EBC702B2EBC70261EBD8
:10280000577115EB4C254FEA816141EA92114FEA6D
:1028100082624FEAD13742EA901206FB07FC44F18C
:1028200000044FEA80604FEA1C4C0CFB0BF7D21BF4
:1028300003FB0CF761EB07010CFB0EF7B0EB074055
:1028400072EB17420CFB08F734BFA2EB0742B2EB66
:10285000074261EB174115EB1C154FEA813141EA44
:1028600092414FEA823242EA90424FEA80304FEA88
:102870000C7644F1000448EA03434EEA0B484FF05B
:10288000000EB2EB080C71EB030724BF6246394619
:102890004EEB0E0E4FF0000B0018524149414BEB2E
:1028A0000B0BB2EB080C71EB03077BF1000B24BFA1
:1028B000624639464EEB0E0E4FF0000B00185241A7
:1028C00049414BEB0B0BB2EB080C71EB03077BF1AF
:1028D000000B24BF624639464EEB0E0E51EA02074A
:1028E00018BF46F0010616EB0E7655F1000254F1C2
:1028F000000103D5BDE88901BDE80088BDE8890174
:10290000BDE80048B619524141EB0101A3F10103B2
:10291000704780807F7E7D7C7B7A7978777676754C
:102920007473727171706F6E6E6D6C6C6B6A6A69C4
:102930006868676666656464636362616160605F5E
:102940005F5E5E5D5D5C5C5B5B5A5A5959585857D7
:10295000575656555555545453535252525151503F
:1029600050504F4F4F4E4E4D4D4D4C4C4C4B4B4B92
:102970004A4A4A49494948484847474747464646D8
:102980004545454444444443434343424242424113
:102990004141000046EA0646A3F570534FEA164649
:1029A00046EA42564FEAD22242EA415210B54FEA75
:1029B000D121A3F1010300F02FF820F0004000F135
:1029C000020C00F0004701EB00501146BCF5006F0F
:1029D00040EA070000D210BDBAF1000F0AD01CB5C2
:1029E00003B44FF004004FF004014FF000000FBC9F
:1029F000BDE810404FF00001BBF1010FB9BF044822
:102A00004FF0FF310348002140EA070010BD00BF2E
:102A1000FFFFEF7F0000F07F002B9C4630D4770053
:102A20002BD01CB54FEA370703B44FF010004FF01E
:102A30001001BAF1000F06D0BCF1000FDCBF40F06E
:102A4000080040F008014FF000000FBCBDE8104046
:102A50000BF1010BBBF1010F08BF5FEA170722BFA3
:102A600012F1010211F101014FF0004143F10003A5
:102A700000F0004043EA00007047F9D35708D0E760
:102A800046EA064613F1400F4FEA16461FDD13F1E2
:102A9000200FDFBF16430A46002120335B42BED021
:102AA000C3F1200746EA064602FA07F74FEA164640
:102AB00046EA0706C3F1200722FA03F201FA07F7F4
:102AC00021FA03F14FF0000342EA0702A7E746EAC2
:102AD000020646EA06464FEA164646EA0106BCBF2B
:102AE00046EA0646360C4FF000034FF000024FF066
:102AF000000194E72DE9804C9A46934670B491E822
:102B0000380007C831EA400C48BF34EA430C03D50B
:102B1000FFF7A3FDFFF780FFF0BCBDE8008C2DE9B7
:102B2000804C9A46934670B491E8380007C831EA61
:102B3000400C48BF34EA430C03D5FFF78EFDFFF786
:102B400029FFF0BCBDE8008C2DE9804C9A469346E5
:102B500070B491E8380007C810F0804F08BF13F038
:102B6000804F03D100F01AF8FFF756FFF0BCBDE824
:102B7000008C2DE9804C9A46934670B491E8380059
:102B800007C810F0804F08BF13F0804F03D100F04A
:102B900005F8FFF7FFFEF0BCBDE8008C20F07F4792
:102BA00080EA030023F07F4C07EB0C03A3F57C5372
:102BB00000F00040A3F1FE0392F0000F00F0B3809C
:102BC00095F0000F00F077802DE901494FEA1140A0
:102BD0004FEA144621EA004800FB06FC24EA0647B7
:102BE00008FB06F607FB08F800FB07F718EB06489A
:102BF0004CEB164C4FEA124B18EB07484FEA1546C0
:102C00004CEB174022EA0B4E0BFB06FC25EA06476D
:102C10000EFB06F607FB0EFE0BFB07F71EEB064E40
:102C20004CEB164C4FF000061EEB074E4CEB174BCF
:102C300018EB0B0840F1000018EB0E0B58EB0008E6
:102C400040F100008F1A4FF000013CBFC943661BE2
:102C500014BFB5EB040C00213CBFC943F61B4FEA7F
:102C600017444EEA8E0E27EA04454FEA1C4704FB40
:102C700007622CEA074C05FB07F70CFB05F604FB83
:102C80000CFC16EB074642EB174216EB0C4642EBE8
:102C90001C421BEB060658EB0202414146EA9E0627
:102CA00001D5BDE80189B619524141EB0101A3F1FB
:102CB0000103BDE801894FEA14454FEA114724EAB0
:102CC000054621EA074C05FB07F406FB07F70CFB5A
:102CD00006F105FB0CFC11EB074144EB17444FEAEE
:102CE000124711EB0C4144EB1C4422EA074C05FB54
:102CF00007F206FB07F70CFB06F605FB0CFC16EBD0
:102D0000074642EB174216EB0C4642EB1C456A188D
:102D100054F1000148BF7047B619524141EB01011F
:102D2000A3F10103704795F0000F37D04FEA11422D
:102D30004FEA144721EA024624EA074C02FB07F156
:102D400006FB07F70CFB06F402FB0CFC14EB074434
:102D500041EB17414FEA154714EB0C4441EB1C4182
:102D600025EA074C02FB07F506FB07F70CFB06F606
:102D700002FB0CFC16EB074645EB174516EB0C4621
:102D800045EB1C42121951F1000148BF7047B619BA
:102D9000524141EB0101A3F1010370474FEA144591
:102DA0004FEA114724EA054621EA074C05FB07F1E3
:102DB00006FB07F70CFB06F24FF0000605FB0CFCC8
:102DC00012EB074241EB174112EB0C4251EB1C4155
:102DD00048BF7047921841EB0101A3F1010370470E
:102DE00008B50121042002F095F810208DF80300A9
:102DF0000120ADF8000003208DF802006946044868
:102E000000F016FC0121024800F0A8FC08BD0000FB
:102E10000008014010B5044603F058F8462003F0BE
:102E20002BF803F07BF8012800D110BD204603F0F9
:102E300023F803F073F8012801D10220F5E703F02D
:102E40005DF80020F1E710B500F092FC00F004F806
:102E50001020FFF7DFFF10BD10B50120FFF7DAFFEC
:102E600010BD10B5002403F031F8472003F004F83A
:102E700003F054F8012801D1002010BD02F0DAFF60
:102E8000044602F095FF02F0D5FF00EB042084B267
:102E900002F0BCFF03F032F82046EEE700BFFEE789
:102EA0000FB410B5CCB002AC4FA801904FF49471A0
:102EB00002A8019B4E9AFDF7C3FA002001900EA1D3
:102EC000104802F0BFFC0BE014F8011B0D4802F0A3
:102ED00005FC00BF40210B4802F037FB0028F9D069
:102EE00020780028F0D108A1064802F0ABFC4CB0D5
:102EF00010BC5DF814FB00005B4C4F475D202F3E7B
:102F000020000000003801400D0A000010B5002428
:102F10001548006820F00F00134908600846006853
:102F200040F00800086004E0601CC4B2012002F018
:102F3000C1FE0E48006808B1642CF5DB642C01DB8F
:102F4000012010BD002404E0601CC4B2012002F086
:102F5000B1FE0648006808B9642CF5DB642C01DB7F
:102F60000120EEE70020ECE70408014020012142A7
:102F700008B50121042001F0CDFF4FF48070ADF8B9
:102F8000000010208DF8030003208DF80200694630
:102F9000064800F04DFB4FF48071044800F0DEFB62
:102FA00000F072F8FFF7B2FF08BD00000008014012
:102FB00010B5002404E0601CC4B2012002F07AFEC7
:102FC0000D48006808B1642CF5DB002404E0601CA7
:102FD000C4B2012002F06EFE0748006808B9642CF4
:102FE000F5DB282002F066FE0348006808B10120E6
:102FF00010BD0020FCE700002001214270B5002434
:10300000002506E06006040EFFF7D2FF0443681CAB
:10301000C5B2082DF6DB204670BD2DE9FC41054602
:103020000E461746984600F02FF8FFF76FFF30BBAB
:10303000002405E0FFF7E2FF0DF80400601CC4B2B5
:10304000052CF7DB9DF800009DF8011008449DF861
:10305000021008449DF8031008449DF804108842AB
:1030600010D19DF8000028709DF8010030709DF887
:10307000020038709DF8030088F8000002E001208B
:10308000BDE8FC810020FBE710B50C48006820F08B
:103090000F000A4908600846006840F00300086015
:1030A000002007490860142002F0DEFD01200549D8
:1030B000C1F8A0011E2002F0FDFD10BD0408014072
:1030C000A0012142000021427047000010B580217C
:1030D0000348FDF79BFC00200249088010BD00005A
:1030E000D80500202400002070B50546002400BF4C
:1030F00000F088F980B90DA10E48FDF794FB044655
:1031000054B13A212046FDF772FB044614B1641C09
:10311000204670BD0020FCE7052002F0A5FD681EDA
:1031200085B2002DE4DC0020F3E700004950442C78
:1031300000000000D805002008B50121042001F09E
:10314000E9FE10208DF803008002ADF80000032096
:103150008DF8020069463D4800F06AFA00224FF4FB
:1031600080413A4800F0FCFAFA2002F07DFD01228D
:103170009103364800F0F4FA4FF4FA7002F074FD4F
:10318000FFF7A4FF32A1344802F05CFB03E04FF4E8
:10319000FA7002F069FD31A131A000F0E5F80028D5
:1031A000F5D131A0FFF77CFE2EA135A000F0DCF8B0
:1031B0004FF4FA7002F058FD2AA134A000F0D4F8C0
:1031C0004FF4FA7002F050FD34A1234802F03AFBAC
:1031D00003E04FF4FA7002F047FD20A132A000F0A6
:1031E000C3F80028F5D134A11B4802F02BFB03E003
:1031F0004FF4FA7002F038FD18A133A000F0B4F8D3
:103200000028F5D134A1144802F01CFB03E04FF470
:10321000FA7002F029FD33A134A000F0A5F80028CF
:10322000F5D13AA10C4802F00DFB03E04FF4FA701F
:1032300002F01AFD39A13BA000F096F80028F5D164
:1032400043A1054802F0FEFA08BD0000001001404D
:10325000302E2041540D0A00003801404F4B000031
:1032600041540D0A00000000312E2041542B5253CE
:1032700054202D20C8EDB8B4CEBB3832363600000D
:1032800041542B5253540D0A0000000041542B436B
:103290004950434C4F53450D0A000000322E204345
:1032A000574D4F44450D0A0041542B43574D4F4451
:1032B000453D310D0A000000332E2041542B435769
:1032C000444843500D0A000041542B43574448439F
:1032D000503D312C310D0A00342E2043574A4150C5
:1032E0000D0A0000474F54204950000041542B4321
:1032F000574A41503D22666C7966697368222C22D8
:103300003132333435363738220D0A00352E20431A
:10331000495053544152540D0A000000434F4E4E41
:103320004543540041542B43495053544152543D5A
:1033300022544350222C2262726F6B65722E656D8F
:1033400071782E696F222C313838330D0A00000055
:10335000362E204553503832363620496E69742057
:103360004F4B0D0A000000002DE9F04104460D46C8
:10337000C8262046FDF769FA87B23A4621460D482D
:1033800002F084FA0FE000F03DF848B929460A48F7
:10339000FDF749FA20B1FFF799FE0020BDE8F08162
:1033A0000A2002F061FC301EA6F10101CEB2EAD182
:1033B0000120F3E700440040D805002030B589B073
:1033C00004460D46FFF782FE2A4608A101A8FDF734
:1033D00051F80AA101A8FFF7C7FF20B92A462146E4
:1033E000074802F053FA09B030BD000041542B43A6
:1033F000495053454E443D25640D0A003E000000EF
:10340000004400400A48008808B901207047084875
:10341000008808490988884203D1002004490880AF
:10342000F4E703480088034908800120EEE7000024
:10343000240000202600002010B50A2002F014FC11
:1034400001210C4800F07FF980B90B48006808B9E9
:10345000012000E00020084908600848D0F8B401C5
:1034600008B9012000E0002005490860012000F0B3
:103470006FF810BD000C0140900121420000224273
:10348000B401224210B50A2002F0EEFB02210948E5
:1034900000F059F950B90848007808B9012000E057
:1034A000002005490870002004490870022000F03F
:1034B0004FF810BD000C014000000020010000206A
:1034C0000EB50121084601F025FD00F099F9002113
:1034D000012000F08DF80120019000208DF80800F7
:1034E0000C208DF8090001208DF80A0001A800F0D9
:1034F00035F80121084600F07BF8022001900020F9
:103500008DF808000C208DF8090001208DF80A00C4
:1035100001A800F023F806208DF8000002208DF8A5
:1035200001008DF8020001208DF80300684600F0CC
:10353000FBFE07208DF8000002208DF801008DF8B9
:10354000020001208DF80300684600F0EDFE0EBD7C
:10355000014908607047000014040140002123491C
:103560008279002A3AD00A46126803689A430B46C9
:103570001A600A1D126803689A430B1D1A600279CB
:1035800011440A6803681A430A60184A083212682C
:1035900003689A43154B08331A601A1D12680368B2
:1035A0009A43124B0C331A604279102A0ED11A1F1B
:1035B000126803681A430D4B08331A601A1D12680B
:1035C00003681A43094B0C331A600DE0074942792E
:1035D00011440A6803681A430A6005E0027911443D
:1035E0000A6803689A430A607047000000040140BB
:1035F00030B500228B071C0F0F2303FA04F20B4B8C
:103600008C1053F824309343084C8D1044F8253027
:1036100023468C1053F824308C07240F00FA04F44E
:103620002343024C8D1044F8253030BD0800014082
:103630002DE9F04102460025002600200023002449
:10364000002791F803C00CF00F0591F803C00CF0AF
:10365000100CBCF1000F03D091F802C04CEA050534
:1036600091F800C0BCF1000F31D0146800202BE0AD
:103670004FF0010C0CFA00F3B1F800C00CEA03069D
:103680009E4220D183004FF00F0C0CFA03F7BC438D
:1036900005FA03FC4CEA040491F803C0BCF1280FBE
:1036A00006D14FF0010C0CFA00FCC2F814C00AE07D
:1036B00091F803C0BCF1480F05D14FF0010C0CFA92
:1036C00000FCC2F810C0401C0828D1D31460B1F827
:1036D00000C0BCF1FF0F34DD546800202EE000F183
:1036E000080C4FF0010808FA0CF3B1F800C00CEA1E
:1036F00003069E4221D183004FF00F0C0CFA03F712
:10370000BC4305FA03FC4CEA040491F803C0BCF185
:10371000280F05D100F1080C08FA0CF8C2F8148043
:1037200091F803C0BCF1480F07D100F1080C4FF02D
:10373000010808FA0CF8C2F81080401C0828CED303
:103740005460BDE8F0810246002093680B400BB145
:10375000012000E00020704741617047016170471F
:103760000AB1016100E04161704700BFFEE700005F
:1037700008B50121082001F0CDFBC020ADF8000004
:1037800003208DF8020014208DF8030069460348D9
:10379000FFF74EFF02F0B2FB08BD0000000C014035
:1037A00010B580210748FFF7D9FF20210548FFF712
:1037B000D5FF80210348FFF7CFFF20210148FFF705
:1037C000CBFF10BD0008014010B520210548FFF7D0
:1037D000C5FF80210348FFF7BFFF80210148FFF7A5
:1037E000BDFF10BD0008014010B520210348FFF7C0
:1037F000B5FF20210148FFF7AFFF10BD00080140D1
:1038000008B50121082001F085FB0120ADF800007A
:1038100048208DF8030069460648FFF709FF02209B
:10382000ADF8000048208DF8030069460148FFF715
:10383000FFFE08BD000C014008B50121142001F075
:1038400069FB1020ADF800008DF8030003208DF80F
:10385000020069460A48FFF7EBFE10210848FFF70F
:103860007DFF4FF40050ADF8000069460548FFF7B2
:10387000DFFE4FF400510348FFF770FF08BD000062
:10388000000801400010014070B5FFF7EAFA064653
:1038900003F092FB0546044903F0CCFA04464FF0CE
:1038A0007E5103F0D1FB70BDCDCC8C3F10B50446EA
:1038B000207B012802D12068FCF731FD0020206028
:1038C0006060A060207310BD0246002301230DE05C
:1038D00002F07F000870D2092AB1087840F0800019
:1038E0000870491C01E0184670475B1C042BEFDD93
:1038F0004FF0FF30F8E770B504460E46002520680B
:1039000098B9012020733046FCF7DAFC206020686B
:10391000E0B100206060A66003E000202168485507
:103920006D1CA068A842F8D810E00220207303E0C4
:103930000020216848556D1CA068A842F8D80020D6
:103940006060A068B04201D20020206070BD00001D
:103950002DE9FF4F83B082468B469146159C00258A
:10396000002002900F2701904846FCF76EFF0FFAE7
:1039700080F8B9F1000F03D1012007B0BDE8F08F46
:1039800008F10200384487B2109808B145F00205EA
:10399000129878B145F004051298FCF756FFC0B2B2
:1039A00002901398FCF751FF01460298001D08444D
:1039B000384487B2119820B1012804D0022808D1D8
:1039C00004E000BF07E045F00C0504E045F01405F5
:1039D00001E00220D1E700BF149808B145F02405AA
:1039E000BAF1000F02D0BBF1000F01D10320C4E7F0
:1039F00045F0C0055046FCF728FF06465846FCF740
:103A000024FF3044001D384487B239462046FFF772
:103A100072FF206808B90420AFE739462068FCF738
:103A2000F5FF10216268501C606020688154D4E961
:103A30000023D118781FFFF747FF00B201900198CB
:103A4000002804DA2046FFF731FF052095E761687A
:103A500001980844606000216268501C6060206822
:103A6000815404216268501C6060206881544D219B
:103A70006268501C60602068815451216268501C4B
:103A800060602068815454216268501C6060206826
:103A900081546268501C606020688154042162680F
:103AA000501C6060206881546168481C6060206818
:103AB00045540698010A6268501C60602068815471
:103AC0000698C1B26268501C606020688154C8F3D7
:103AD00007216268501C6060206881546268501C35
:103AE0006060206800F80280D4E90012881842461D
:103AF0004946FCF786FE60684044606005F00400BB
:103B0000B8B30026139808B938A013901298FCF7A0
:103B10009CFE86B2310A6268501C60602068815445
:103B20006268501C606020688654D4E900128818CE
:103B300032461299FCF765FE606830446060139865
:103B4000FCF783FE86B2310A6268501C6060206810
:103B500081546268501C606020688654D4E9001269
:103B6000881832461399FCF74CFE60683044606058
:103B700000BF05F08000C8B15046FCF766FE86B273
:103B8000310A6268501C6060206881546268501C71
:103B9000606020688654D4E9001288183246514685
:103BA000FCF72FFE60683044606000BF05F0400005
:103BB000C8B15846FCF749FE86B2310A6268501C0B
:103BC0006060206881546268501C60602068865480
:103BD000D4E90012881832465946FCF712FE606894
:103BE0003044606000BF0020C7E600000000000015
:103BF0002DE9FF4F83B0834617469946139C002555
:103C000000260020029001908046BBF1000F03D1F6
:103C1000012007B0BDE8F08F00260AE00498805D1F
:103C2000232803D00498805D2B2801D10220F0E7DF
:103C3000761C0498805D0028F0D148F03008119877
:103C400008B148F0010806EB0900851C109820B166
:103C5000012804D002280AD105E000BF09E048F09D
:103C60000208AD1C05E048F00408AD1C01E003208B
:103C7000CFE700BF8FB33878022821D14FF0000A78
:103C800000BF50460AF1010A385C7D28F9D1AAF13B
:103C9000030A0AF1070002900298A9EB000AE81C47
:103CA000A0EB0A012046FFF726FE206808B9042091
:103CB000AFE7EA1CA2EB0A012068FCF7A7FE19E0B7
:103CC000691D2046FFF717FE206808B90420A0E709
:103CD000691D2068FCF79AFE0CE0FFE7691D20468D
:103CE000FFF709FE206808B9042092E7691D2068E3
:103CF000FCF78CFE6168481C6060206800F8018059
:103D0000D4E9000281182846FFF7DEFD01900198F2
:103D1000002804DA2046FFF7C9FD052079E761682D
:103D2000019808446060C6F307216268501C606017
:103D3000206881546268501C606020688654D4E911
:103D40000012881832460499FCF75BFD6068304425
:103D50006060109860B14FEA1B216268501C60607F
:103D6000206881546268501C6060206800F802B0CE
:103D7000C7B1387802280BD1D4E900128818394627
:103D8000029AFCF7CCFD616802980844606009E083
:103D9000D4E9001288184A463946FCF7C0FD60682D
:103DA00048446060002034E770B505460C460421A5
:103DB0002046FFF7A0FD206808B9012070BD7021E2
:103DC0006268501C60602068815402216268501C47
:103DD00060602068815429126268501C606020680D
:103DE00081546268501C6060206885540020E5E7BB
:103DF00070B505460C4604212046FFF77CFD20687F
:103E000008B9012070BD62216268501C60602068A2
:103E1000815402216268501C60602068815429121C
:103E20006268501C6060206881546268501C606049
:103E3000206885540020E5E72DE9FF5F804617469E
:103E400099460E9C0026B246B3460025B8F1000FF5
:103E500003D1012004B0BDE8F09F0BE057F8250026
:103E600008B90220F6E757F82500FCF7EEFC0644F7
:103E7000681CC5B24D45F1DB09EB4900801C00EB25
:103E8000060A0AF105012046FFF735FD206808B94A
:103E90000320DFE782216268501C60602068815443
:103EA000D4E9000281185046FFF70EFD0FFA80FB9F
:103EB000BBF1000F04DA2046FFF7F8FC0420C9E745
:103EC0006068584460604FEA18216268501C606066
:103ED000206881546268501C6060206800F802808D
:103EE000002524E057F82500FCF7AFFC0646C6F392
:103EF00007216268501C6060206881546268501C11
:103F0000606020688654D4E90023D01857F8251043
:103F10003246FCF776FC6068304460600198C1B2BC
:103F20006268501C606020688154681CC5B24D45B1
:103F3000D8DB00208EE7F0B504460D462646012367
:103F400000201060002114E0775C07F07F07106804
:103F500007FB03001060705C00F0800008B9481C8B
:103F6000F0BDDB01B3F5001F02D36FF00100F7E7EE
:103F7000491CA942E8DB4FF0FF30F1E72DE9F84397
:103F800080460C4615461E462F2108F10600FCF718
:103F90002EFC07460020009017B90120BDE8F883E9
:103FA0007F1C6A46042108F10100FFF7C4FF2520A9
:103FB000FCF786F92060206808B90220EEE7252189
:103FC0002068FCF723FD242239462068FCF7A7FC73
:103FD000243700982C3830803188481CFCF770F961
:103FE0002860286820B92068FCF799F90320D5E7F4
:103FF0003288511C2868FCF709FD32883946286848
:10400000FCF78DFC0020C9E701464878022801D062
:1040100001207047887810B18878012801D1C878CC
:10402000F7E7FF20F5E700002DE9FC5F81460D462C
:1040300014461E46DDE90C8B99F8000000F00F0ACB
:10404000002001900AF008000090CAF341008BF8AC
:10405000000001AA042109F10100FFF76CFF4844A8
:10406000471C0198022802D30AF0010010B1FF207A
:10407000BDE8FC9F7878397840EA012020802088CC
:10408000801C0199884201D9FF20F1E754A1B81C96
:10409000FCF7C9FB08B10F20EAE79BF8000020B14C
:1040A00001283DD0022877D13BE0009808B1FF20DD
:1040B000DEE72188481CFCF703F92860286808B966
:1040C000FF20D5E72288511C2868FCF79FFC228836
:1040D000B91C2868FCF723FC0198801E2188401A2F
:1040E000A8F80000B8F80010481CFCF7E9F83060A8
:1040F000306820B92868FCF712F9FF20B8E7B8F853
:104100000020511C3068FCF781FCB8F80020B4F89E
:1041100000C0BB1C0CEB03013068FCF700FC4FE057
:1041200000BF2088801C0199884201D9FF209FE7A9
:104130002088C01C395C2088801C385C41EA002142
:104140000E9801800E9808B9FF2091E72188481C3D
:10415000FCF7B6F82860286808B9FF2088E72288AD
:10416000511C2868FCF752FC2288B91C2868FCF70F
:10417000D6FB0198001F2188401AA8F80000B8F863
:104180000010481CFCF79CF83060306828B928689B
:10419000FCF7C5F8FF206BE710E0B8F80020511CD1
:1041A0003068FCF733FCB8F80020B4F800C03B1DC1
:1041B0000CEB03013068FCF7B2FB01E0FF2057E78E
:1041C00000BF2B212846FCF712FB20B923212846EB
:1041D000FCF70DFB08B1FF204AE7002048E700008C
:1041E000246372657100000001464878022801D0FE
:1041F00001207047887820B9C8780A2801D10020AA
:10420000F7E70120F5E701464878022801D00120B0
:104210007047887820B9C8780A2801D10020F7E7CC
:104220000120F5E701464878022801D001207047B7
:10423000887820B9C8780A2801D10020F7E7012042
:10424000F5E702465078022801D0012070479078A7
:10425000B0EB112F05D1D078CBB2984201D100201C
:10426000F4E70120F2E70000F8B50446FF272078C4
:104270000511012D01DB0E2D01DD3846F8BD032DA2
:1042800024D1002000906A460421601CFFF753FEF1
:104290002044461C0098022803D3207800F0010037
:1042A00008B1FF20EAE77078317840EA0120801CED
:1042B0000099884201D9FF20E0E706A1B01CFCF775
:1042C000B2FA08B10F2700E0032700E02F46384676
:1042D000D4E7000024637265710000000146FF20EE
:1042E0008A78A2B9CA78142A11D10A7932B1012A7E
:1042F00005D0022A04D0802A06D103E000BF00BF07
:10430000002003E0012001E0022000BF00BF704751
:10431000014601208A781AB9CA781E2A00D10020E5
:10432000704700BFFEE7704770B5002100230F22E1
:10433000C47804B3154C246804F4E064C4F5E06464
:10434000210AC1F10403CA40447804FA03F18478D5
:104350001440214309010E4C0678A155047804F05D
:104360001F050124AC4005786D11AD0005F1E02575
:10437000C5F8004109E0047804F01F050124AC40B1
:10438000044D0678761145F8264070BD0CED00E02E
:1043900000E400E080E100E002490143024A1160CC
:1043A000704700000000FA050CED00E070B5002435
:1043B0000CE0002506E00020074901EBC501085587
:1043C000681CC5B2802DF6DB601CC4B2082CF0DB83
:1043D00000F012F970BD00005801002070B50B46C6
:1043E000CE1701EB5676C6F3C702CE1701EB567611
:1043F000F610A1EBC606F4B20123A340DDB20E4BCA
:1044000003EBC0039B5CDB430B4E06EBC006B354CF
:10441000094B03EBC0039B5C2B43074E06EBC00626
:10442000B354054B03EBC0039B5CDB43024E06EB2E
:10443000C006B35470BD00005801002010B50446FA
:104440001CB90021A62000F09CF9012C03D1002109
:10445000A72000F096F910BD10B504463CB9002124
:10446000C82000F08EF90021A12000F08AF9012C6B
:1044700007D10021C02000F084F90021A02000F025
:1044800080F910BD70B50A46CE1701EB5676C6F31B
:10449000C703CE1701EB5676F610A1EBC606F4B2B1
:1044A0000122A240D5B2054A02EBC002D25C2A43E7
:1044B000024E06EBC006F25470BD00005801002009
:1044C00008B50121042000F025FD2020ADF80000F2
:1044D00010208DF8030003208DF80200694645483E
:1044E000FFF7A6F820214348FFF738F98020ADF800
:1044F000000010208DF8030003208DF802006946AB
:104500003C48FFF795F880213A48FFF727F900214A
:10451000AE2000F036F90021084600F032F9002103
:10452000102000F02EF90021402000F02AF900218F
:10453000812000F026F90021CF2000F022F900218F
:10454000A12000F01EF90021C82000F01AF9002176
:10455000A62000F016F90021A82000F012F9002191
:104560003F2000F00EF90021D32000F00AF90021CD
:10457000084600F006F90021D52000F002F90021DC
:10458000802000F0FEF80021D92000F0FAF8002188
:10459000F12000F0F6F80021DA2000F0F2F8002116
:1045A000122000F0EEF80021DB2000F0EAF80021F4
:1045B000402000F0E6F80021202000F0E2F8002181
:1045C000022000F0DEF800218D2000F0DAF8002152
:1045D000142000F0D6F80021A42000F0D2F8002129
:1045E000A62000F0CEF80021AF2000F0CAF8FFF7B7
:1045F000DDFE08BD0008014070B500241CE004F198
:10460000B001C8B2002100F0BCF80021084600F05B
:10461000B8F80021102000F0B4F8002508E008499F
:1046200001EBC501085D012100F0ABF8681CC5B2C3
:10463000802DF4DB601CC4B2082CE0DB70BD0000F0
:10464000580100202DE9FF4F81B080460E461C46E0
:1046500000962046E31704EB5373DB1021464FEA24
:10466000E47C04EB5C7C4FEAEC0CA4EBCC0CBCF1DE
:10467000000F02D04FF0010C01E04FF0000C63443A
:10468000224604EBD27C4FEA6C0C03FB0CF303F0E4
:10469000FF0B03982038C7B2002547E00C2C07D148
:1046A00007EB4700234901EB800010F805A014E058
:1046B000102C05D1204800EB071010F805A00CE0E5
:1046C000182C07D107EBC7001C4901EB800010F83C
:1046D00005A002E005B0BDE8F08F4FF000091FE033
:1046E0000AF0800020B131464046FFF7CBFE03E0E0
:1046F00031464046FFF772FE4FEA4A604FEA106AC1
:10470000701CC6B20098301AA04205D1009E08F174
:10471000010000F0FF0806E009F1010000F0FF09C8
:10472000B9F1080FDCDB00BF681CC5B25D45B5DB25
:1047300000BFCFE7F87200086C7700085C7D0008C6
:10474000F0B506460F4614461D4613E022782B4668
:1047500039463046FFF776FF284605EBD07106EB69
:104760006101CEB2C5F18000B04202DA0026B81C69
:10477000C7B2641C2078202802DB20787E28E5DD83
:10478000F0BD70B505460C46FFF70AF8782000F03A
:104790003DFCFFF729F81CB1402000F037FC02E097
:1047A000002000F033FCFFF71FF8284600F02EFC35
:1047B000FFF71AF8FFF708F870BD000030B58BB0AE
:1047C00000200790089009900A90012530A033A39B
:1047D00034A236A10090414801F034F807A8002126
:1047E00002910391CDE9041000912B0228A20191BE
:1047F0002AA12CA0FFF7ACF8002842D1089A91B268
:104800000798FEF7DBFDFA20FEF76EFC0446002C4D
:1048100033D02046FFF728FD02282ED12046FFF78F
:10482000F3FB062823D2DFE800F003090E13181D5E
:104830002BA12A4801F006F800251DE02DA12748EC
:1048400001F000F818E032A1244800F0FBFF13E06B
:1048500038A1224800F0F6FF0EE03EA11F4800F00C
:10486000F1FF09E044A11D4800F0ECFF04E04DA178
:104870001A4800F0E7FF00BF00BF07A8FFF716F8CF
:1048800003E04FA1154800F0DDFF28460BB030BD16
:10489000313136393339333436360000666C796657
:1048A0006973680036323137373400004F6E654E19
:1048B00065745F4465764C696E6B0D0A50524F49C2
:1048C000443A2025732C09415549463A2025732C3A
:1048D0000944455649443A25730D0A000038014001
:1048E000546970733A09C1ACBDD3B3C9B9A60D0AF6
:1048F000000000005741524E3A09C1ACBDD3CAA7CF
:10490000B0DCA3BAD0ADD2E9B4EDCEF30D0A00000D
:104910005741524E3A09C1ACBDD3CAA7B0DCA3BAC5
:10492000B7C7B7A8B5C4636C69656E7469640D0ACE
:10493000000000005741524E3A09C1ACBDD3CAA78E
:10494000B0DCA3BAB7FECEF1C6F7CAA7B0DC0D0A39
:10495000000000005741524E3A09C1ACBDD3CAA76E
:10496000B0DCA3BAD3C3BBA7C3FBBBF2C3DCC2EBAF
:10497000B4EDCEF30D0A00005741524E3A09C1ACD6
:10498000BDD3CAA7B0DCA3BAB7C7B7A8C1B4BDD35B
:1049900028B1C8C8E7746F6B656EB7C7B7A8290D93
:1049A0000A0000004552523A09C1ACBDD3CAA7B0B3
:1049B000DCA3BACEB4D6AAB4EDCEF30D0A00000043
:1049C0005741524E3A094D5154545F5061636B65E3
:1049D00074436F6E6E656374204661696C65640D27
:1049E0000A00000070B588B005460C46002004900F
:1049F00005900690079023462A4610A1174800F01C
:104A000021FF2046FBF721FF064604A801210022D2
:104A100000923346CDE901210390224629460A201F
:104A2000FFF7E6F838B9059A91B20498FEF7C6FC8C
:104A300004A8FEF73BFF08B070BD00005075626C23
:104A400069736820546F7069633A2025732C204D78
:104A500073673A2025730D0A0000000000380140FA
:104A60002DE9F04F8FB0814600200B900C900D90F7
:104A70000E900A9009900890079000270690002653
:104A8000002482464846FFF7EFFB0746F81E0D2834
:104A900076D2DFE800F01C8089A3BFE4C8E4D6E446
:104AA000E4E4070007AB0AAA09A94846FFF766FA3B
:104AB00006465EB9BDF81C00009082A18A48DDE977
:104AC000092300F0BFFE0BA8FEF7F0FECAE08748FE
:104AD00006A907AA0AABCDE90021029008AA09A9F4
:104AE0004846FFF7A1FA0646002E53D1BDF81C0038
:104AF0000A99CDE90010BDF820307DA17A48099AC5
:104B000000F0A0FE0A9800F0E3FF8046B8F1000F25
:104B100008D100F0BFFF83465A4684A1724800F0D6
:104B200091FE34E086A1404600F0BCFF054686A118
:104B30006D486A6900F086FE83A16B482A6900F01F
:104B400081FE86A12869FBF76EFE70B184A1404604
:104B500000F0A8FF0546686918B100208249086086
:104B600015E001208049086011E07DA1404600F079
:104B700099FF0546686920B101207C49087003E06F
:104B80006DE000207949087000207949087040469E
:104B900000F054FF66E04846FFF726FB18B975A100
:104BA000514800F04FFE5DE04846FFF73BFBA0B9DF
:104BB00078A14D4800F046FE0BA90A20FFF718F92E
:104BC00058B97AA1484800F03DFE0C9A91B20B9872
:104BD000FEF7F4FB0BA8FEF769FE43E043480188AB
:104BE0004846FFF72EFBA0B976A13F4800F02AFE09
:104BF0000BA90A20FFF7D8F858B978A13A4800F075
:104C000021FE0C9A91B20B98FEF7D8FB0BA8FEF789
:104C10004DFE27E04846FFF7F6FA18B976A132486C
:104C200000F010FE1EE04846FFF758FB20B978A1BF
:104C30002D4800F007FE03E07CA12B4800F002FEA7
:104C400010E04846FFF764FB20B97FA1264800F03A
:104C5000F9FD03E083A1244800F0F4FD02E04FF0E9
:104C6000FF3600BF00BFFEF731FA701C10B90FB05D
:104C7000BDE8F08F7D210A98FBF7B9FD0446A4B189
:104C8000701C90B1641C06E014F8012B50460AF128
:104C9000010A03A90A542078302802DB2078392839
:104CA000F2DD03A8FBF796FD82460F2F01D0032FFC
:104CB00005D10998FBF733FB0A98FBF730FB00BFDF
:104CC000D5E70000636D6469643A2025732C207277
:104CD00065713A2025732C207265715F6C656E3AA0
:104CE0002025640D0A000000003801402800002043
:104CF000746F7069633A2025732C20746F70696338
:104D00005F6C656E3A2025642C207061796C6F6150
:104D1000643A2025732C207061796C6F61645F6C3C
:104D2000656E3A2025640D0A000000004572726F1E
:104D300072206265666F72653A5B25735D0A0000DA
:104D400074617267657400006A736F6E5F76616C80
:104D500075653A5B25735D0A000000004C45440010
:104D600076616C7565000000900121420000002012
:104D700001000020546970733A094D515454205079
:104D800075626C6973682053656E64204F4B0D0A21
:104D900000000000546970733A095265762050751E
:104DA000626C6973685265630D0A00005469707320
:104DB0003A0953656E64205075626C697368526578
:104DC0006C0D0A00546970733A095265762050756B
:104DD000626C69736852656C0D0A000054697073E7
:104DE0003A0953656E64205075626C697368436F4D
:104DF0006D700D0A00000000546970733A09526525
:104E000076205075626C697368436F6D700D0A008F
:104E1000546970733A094D51545420537562736349
:104E200072696265204F4B0D0A000000546970736F
:104E30003A094D5154542053756273637269626527
:104E4000204572720D0A0000546970733A094D5181
:104E5000545420556E537562736372696265204FB6
:104E60004B0D0A00546970733A094D515454205542
:104E70006E537562736372696265204572720D0AC2
:104E80000000000070B586B004460D4600260020E4
:104E9000029003900490059007E054F826200DA19D
:104EA000124800F0CFFC701CC6B2AE42F5DB02A87F
:104EB0002B462246002100901420FEF7BDFF38B992
:104EC000039A91B20298FEF779FA02A8FEF7EEFC77
:104ED00006B070BD53756273637269626520546F6A
:104EE0007069633A2025730D0A0000000038014004
:104EF0007047000029B1064AD2690243044BDA61C7
:104F000004E0034AD2698243014BDA617047000032
:104F10000010024029B1064A92690243044B9A618B
:104F200004E0034A92698243014B9A617047000092
:104F30000010024030B500210022002400232D4D36
:104F40006D6805F00C0121B1042905D0082923D191
:104F500005E0294D056022E0274D05601FE0254D45
:104F60006D6805F47012234D6D6805F480340225D8
:104F700005EB92421CB9214D554305600BE01D4DD8
:104F80006D6805F400351DB11C4D5543056002E008
:104F9000194D5543056002E0174D056000BF00BF85
:104FA000144D6D6805F0F0010909154D6B5C05683D
:104FB000DD4045600F4D6D6805F4E061090A104D54
:104FC0006B5C4568DD4085600A4D6D6805F4605195
:104FD000C90A0B4D6B5C4568DD40C560054D6D68C9
:104FE00005F44041890B074D6B5CC568B5FBF3F5D3
:104FF000056130BD0010024000127A0000093D003A
:1050000044000020540000207047000070B50446A2
:1050100000251BE020210F48FEF79EFB04F08000D6
:1050200020B180210B48FEF799FB03E0802109485D
:10503000FEF792FB20210748FEF790FB2021054850
:10504000FEF78AFB6006040E681CC5B2082DE1DB82
:1050500070BD00000008014010B500F001F810BD5F
:105060000CB50020019000903348006840F4803077
:105070003149086000BF3048006800F400300090FB
:105080000198401C0190009818B90198B0F5A06FE4
:10509000F1D12948006800F4003010B101200090DF
:1050A00001E0002000900098012843D123480068C7
:1050B00040F01000214908600846006820F0030015
:1050C00008600846006840F0020008601A4840681E
:1050D000194948600846406848600846406840F4FE
:1050E000806048600846406820F47C1048600846AC
:1050F000406840F4E81048600846006840F080705E
:10510000086000BF0C48006800F000700028F9D06B
:105110000948406820F00300074948600846406895
:1051200040F00200486000BF0348406800F00C00F7
:105130000828F9D10CBD00000010024000200240F8
:10514000042808D14FF0E021096941F004014FF033
:10515000E022116107E04FF0E021096921F004012C
:105160004FF0E022116170477047000010B51348FE
:10517000006840F001001149086008464068104985
:1051800008400E494860084600680E4908400B492F
:1051900008600846006820F48020086008464068DF
:1051A00020F4FE0048604FF41F008860FFF754FFB2
:1051B0004FF000600449086010BD0000001002407C
:1051C0000000FFF8FFFFF6FE08ED00E070B50121DA
:1051D000880700F004F900283CD00121880700F07E
:1051E000EFF81DA11E48FBF745F910231C4A0021CA
:1051F0000846FFF7A5FA1B4803781B4802781BA155
:105200001748FBF737F91023154A19460020FFF716
:1052100097FA1A4803781A4802781AA11048FBF73F
:1052200029F910230E4A20210020FFF789FA194896
:10523000006801F0C7FD044622460B4616A1084847
:10524000FBF718F91023064A30210020FFF778FAFF
:10525000FFF7D2F970BD000057656C636F6D650094
:1052600058060020030000200200002048756D3A17
:1052700025642E256420252500000000050000205F
:105280000400002054656D703A25642E2564204387
:1052900000000000080000204C696768743A252E61
:1052A0003166204C780000007FB505460C46012190
:1052B0000846FFF71FFEADF80850ADF80440002087
:1052C000ADF80A00ADF8060001A94FF0804000F0EB
:1052D000A1F801221146900700F092F81C208DF8E9
:1052E000000000208DF8010003208DF8020001204D
:1052F0008DF803006846FFF717F80121880700F0D2
:1053000062F87FBD10B50121104800F068F8D8B1EF
:1053100001210E4800F054F80D48007870B10D4896
:10532000006808B9012000E000200A4908600A4826
:10533000D0F88001C0430949086005E00120054913
:1053400008600549C1F8800110BD0000000400405C
:1053500000000020B40122420000214280012142CD
:105360007FB505460C4601210220FFF7C3FDADF8CD
:105370000850ADF804400020ADF80A00ADF8060072
:1053800001A90E4800F046F8012211460B4800F032
:1053900037F81D208DF8000000208DF80100032053
:1053A0008DF8020001208DF803006846FEF7BCFF6F
:1053B0000121024800F007F87FBD00000004004012
:1053C000CA430282704721B1028842F00102028082
:1053D00004E002884FF6FE731A400280704730B531
:1053E0000246002000230024158A05EA010395895E
:1053F00005EA010413B10CB1012000E0002030BD2A
:105400001AB183890B43838102E083898B438381B3
:1054100070470000002202881D4B98420ED01D4BA1
:1054200098420BD0B0F1804F08D01B4B984205D06A
:105430001A4B984202D01A4B984204D14FF68F7300
:105440001A404B881A43174B984207D0164B984284
:1054500004D04FF6FF431A40CB881A4302808B8852
:1054600083850B8803850A4B98420BD0094B9842E1
:1054700008D00E4B984205D00D4B984202D00D4BF0
:10548000984201D10B7A0386012383827047000082
:10549000002C01400034014000040040000800409E
:1054A000000C00400010004000140040004001408B
:1054B000004401400048014010B540F22551044825
:1054C00000F050F818B12021014800F029F810BD73
:1054D0000038014010B540F225510E4800F042F866
:1054E000B0B10D480088802802D300200A49088006
:1054F0000848001D0088C1B2074802880088401C87
:10550000054B1880054881542021024800F008F816
:1055100010BD00000044004024000020D8050020F9
:1055200001F40072B2F5007F00D100BFCA430280CF
:10553000704721B1828942F40052828104E082895D
:105540004DF6FF731A408281704702460020B1F584
:10555000007F00D100BF13880B400BB1012000E099
:105560000020704770B5024600240023002500206B
:1055700040F66A16B14200D100BFC1F3421501F0F6
:105580001F03012606FA03F3012D02D19689334049
:1055900006E0022D02D1168A334001E0968A33409C
:1055A0000C12012606FA04F41688344013B10CB12B
:1055B000012000E0002070BDF0B503460024002665
:1055C0000025002040F66A17B94200D100BF1846F6
:1055D000C1F3421401F01F06012707FA06F5012C5A
:1055E00001D10C3004E0022C01D1103000E0143065
:1055F0001AB107682F43076002E00768AF430760EE
:10560000F0BD00002DE9F04786B005460E460024A7
:10561000A24600BFA1460027B08900B100BF2F46B7
:105620002C8A4CF6FF700440F08804432C82AC892D
:105630004EF6F3100440B08831890843718908435D
:105640000443AC81AC8A4FF6FF400440B089044368
:10565000AC8201A8FFF76EFC1F48874202D1DDF83B
:1056600010A001E0DDF80CA0A88900F4004040B1D2
:105670000AEBCA0000EB0A1031684900B0FBF1F8F0
:1056800007E00AEBCA0000EB0A1031688900B0FBA2
:10569000F1F86420B8FBF0F004012009642101FB5B
:1056A0001089A88900F4004040B1322000EBC90005
:1056B000B0FBF1F000F00700044308E0322000EBFB
:1056C00009106421B0FBF1F000F00F0004432C81BD
:1056D00006B0BDE8F087000000380140C1F30802C1
:1056E0008280704700BFFEE710B586B004460121F6
:1056F0000420FFF70FFC01218803FFF70BFC1820A3
:105700008DF817004FF40070ADF8140003208DF8E9
:10571000160005A91E48FDF78BFF04208DF8170021
:105720000002ADF8140003208DF8160005A91848F2
:10573000FDF77EFF01940020ADF810000C20ADF8BD
:105740000E000020ADF80C00ADF80A00ADF808001E
:1057500001A91048FFF756FF01210E48FFF7E9FEA7
:10576000012240F225510B48FFF726FF25208DF836
:10577000000001208DF8030000208DF801000220B8
:105780008DF802006846FEF7CFFD06B010BD0000A0
:10579000000801400038014010B586B004460121E0
:1057A0000420FFF7B7FB01214804FFF7A3FB1820F3
:1057B0008DF817000420ADF8140003208DF81600B2
:1057C00005A91E48FDF734FF04208DF817000820B6
:1057D000ADF8140003208DF8160005A91748FDF751
:1057E00027FF01940020ADF810000C20ADF80E004A
:1057F0000020ADF80C00ADF80A00ADF8080001A9D2
:105800000F48FFF7FFFE01210D48FFF792FE01222E
:1058100040F225510A48FFF7CFFE26208DF8000000
:1058200001208DF8030000208DF801008DF80200A2
:105830006846FEF779FD06B010BD00000008014083
:10584000004400400FB430B5CBB0054601AC50A8C1
:1058500000904FF4947101A8009B4F9AFAF7F0FD65
:10586000002000900BE014F8011B2846FFF736FFDC
:1058700000BF40212846FFF768FE0028F9D02078B5
:105880000028F0D14BB030BC5DF814FB2DE9F0419D
:1058900007460C46154600260DE014F8011B384655
:1058A000FFF71CFF00BF40213846FFF74EFE0028DF
:1058B000F9D0701C86B2AE42EFDBBDE8F081490042
:1058C00050EAC12018BF04204A0D18BF40F0010063
:1058D00040F2FF72B2EB515F08BF40F002000128B6
:1058E00008BF0520704740F2013200204FF0E04130
:1058F00001F0AFBC024A0020110701F0AABC000071
:1059000001FDFFFF10B50446D1E9000100F002F8E7
:10591000206010BDF8B504460D466A4600F0F0F967
:1059200000987E30009000281EDC0022134620469E
:10593000294601F015F917D0002140F608004FF074
:10594000000006462046294601F0C4F8044640F609
:10595000080006EA00014FF0000034F0004004BFE8
:105960000220FCF75BFB29E00098FF2828DB0021E0
:1059700008464FF0000000F440060022134620467F
:10598000294601F0E9F98CBF002501250220FCF72A
:1059900045FB4FF0FF4446B1002D0CBF4FF4000013
:1059A0004FF48000B04218BF084C042108464FF065
:1059B0000000002D04BF84F00040F8BD2046F8BD73
:1059C00020462946BDE8F84001F084B8FFFF7F7FFC
:1059D00010B504460A46D4E90003194600F0BCFAA3
:1059E000C4E9000110BD30380A2801D201207047F7
:1059F00000207047014609B1086808B900207047C7
:105A000019B1D1E90120904201D30846F7E702E03D
:105A10008868401C886041B1D1E90120904204D2DD
:105A20008A680868805C2028F2DDD1E90120904274
:105A300002D18868401E88600846E0E770B50446D9
:105A4000002522E02568A08900F4807020B9A068B4
:105A500010B1A068FFF7F2FFA08900F4807028B9A8
:105A6000206918B10A4A206951688847A08900F462
:105A7000007028B9206A18B1054A206A5168884721
:105A800003484168204688472C46002CDAD170BD77
:105A90003400002002480068014949680844704702
:105AA0002C00002070B504460D46002229462046F1
:105AB00000F054F970BD70B504462820216888476D
:105AC00005461DB128212846FAF7C2FF284670BDB9
:105AD00010B5044600221146204600F06BF810BDB8
